:020000040800F2
:1018F8002B56452B2A564F47100F0020D5190008A4
:10190800614900083D3600080000000000000000A2
:1019180000000000000000000000000000000000BF
:1019280000000000AD5B000800000000000000009F
:10193800E94B0008FD650008E719000800000000F1
:101948008D4E0008E7190008E719000881280008EB
:10195800E92800082529000800000000E719000808
:10196800E7190008E7190008E7190008E71900084F
:10197800E719000800000000E7190008000000004F
:1019880000000000C966000800000000D9660008D1
:10199800E7190008E7190008E7190008E71900081F
:1019A800E71900086D670008B56700080000000027
:1019B80000000000000000000348854600F008F918
:1019C80000480047116F0008100F002004488047A6
:1019D80004480047FEE7FEE7FEE7FEE7FEE7FEE70E
:1019E800B9660008C119000830B50B460146002049
:1019F8002022012409E00D46D5409D4205D31D460D
:101A08009540491B2546954040191546521E002D04
:101A1800F1DC30BD70B500242546002801DA012428
:101A28004042002901DA01254942FFF7DDFFAC42B7
:101A380000D04042002C00D0494270BDF8B50024C7
:101A48002546002904DA0E46012400214042B1410E
:101A5800002B04DA1E46002352420125B34100F050
:101A680076F88C4617461E46AC4203D00025404205
:101A78008D41AC46002C02D0002657429E4161465B
:101A88003A46334601B0F0BDF0B51FB486B0002029
:101A98000090019002900698069980B204900798E9
:101AA800090C02040014114307900027089D0998A7
:101AB80006913E463C4603900398A9B20204000CE6
:101AC800039004982D0C154348430021224600F04A
:101AD8006EF8C719714110340E46402CECDB3846BD
:101AE800029A00F064F8009A019B8018009059410E
:101AF80002980191103002904028CCDB00980BB07E
:101B0800F0BDD2B201E00270401C491EFBD2704702
:101B18000022F6E710B513460A4604461946FFF7B1
:101B2800F0FF204610BD30B505462A460B46107812
:101B38001C78521C5B1C002801D0A042F7D0002C56
:101B480003D0002802D06D1CEFE7284630BDF0B561
:101B58001FB40646002082B005464024019100903B
:101B68001BE0019922460F46304600F043F8049ADC
:101B7800059B801A994110D310461946224600F059
:101B880016F8361A8F410197224601200021009F3E
:101B980000F00DF838184D4100902046641E0028CA
:101BA800DFDC019B00982946324607B0F0BD10B52E
:101BB800202A04DB0146203A9140002010BD9140C4
:101BC80020239C1A0346E3401943904010BD0000AF
:101BD800064C0125064E05E0E36807CC2B430C3C78
:101BE80098471034B442F7D3FFF7EAFE4074000870
:101BF8006074000810B5202A04DB0846203AD0405B
:101C0800002110BD0B46D340D0402024A21A914099
:101C18000843194610BD70B58D180478401CA207FA
:101C2800920F01D10278401C231106D10378401C81
:101C380003E006780E70401C491C521EF9D1002B97
:101C480015D002780C268A1A3440401C0C2C03D07C
:101C5800A401121B9B1C08E004782402121B401CE0
:101C6800F8E714780C70491C521C5B1EF9D5A94280
:101C7800D3D3002070BD000010B51D480022816834
:101C88001C4B490703D581681940103181601A49F6
:101C980002E08A4203D2521C8468E406F9D48268BE
:101CA800D20703D082681A40921C8260002202E0A8
:101CB8008A4203D2521C83689B07F9D4826817238F
:101CC8009A43DB071A43826083680022002B02DBF9
:101CD80005E08A4203D28368521C002BF9DB0448D2
:101CE8008030406B05494006400E488010BD00001A
:101CF80000240140E8FFFF7FFFFF030004000020ED
:101D0800074800218268074B1A40921C82605A13C8
:101D180002E0914203D2491C83689B07F9D47047BB
:101D280000240140E8FFFF7F0020084901220A60E3
:101D38008A68074B1A40521C8A60DA1302E0904204
:101D480003D2401C0B68DB07F9D070470024014020
:101D5800E8FFFF7FF0B591B0002440216846FFF707
:101D6800D7FE0D4D6E4604272F60A8680B49084022
:101D7800001DA86000F024F8286C6100641CE4B21F
:101D88007052202CF0D308231A462021684604F00C
:101D9800D1FD11B0F0BD000000240140E8FFFF7F35
:101DA800054A00219062054802E0814203D2491C9D
:101DB80013689B04F9D5704700240140FFFF000019
:101DC8000020054A054902E0904203D2401C0B68F6
:101DD8005B07F9D570470000FFFF000000240140B1
:101DE800FEB50420B6490224B64D00910190029434
:101DF8003820285E0123B44AB44900F077F9B04985
:101E08000820891D0091019002943C20AF22285E91
:101E180000231201AE4900F069F9A94808210930E8
:101E28006A4613C23C20AF22285E00231201A9494A
:101E380000F05CF9A24804210C306A4613C22E4611
:101E4800403EB07C01237322822100F04FF99C4868
:101E5800042115306A4613C2F07B002321221E217B
:101E680000F044F9964804210F306A4613C2B07B4B
:101E780001235A22642100F039F9914804211830CD
:101E88006A4613C2F07B002319220F2100F02EF9B5
:101E98008B48042112306A4613C2B07B01236422A6
:101EA8006E2100F023F901F011F98B4C844F20606A
:101EB8003F1F796B002900D178638249FF224031A6
:101EC800C969F532D14200DA7863796B884202D267
:101ED800824A801820603C20285E794D804AED1C9B
:101EE8000026904215DA22684B23511ADB009942EA
:101EF8000FD974494039497943290AD0AE706878B6
:101F08000A2803D9012028707A630FE0401C687002
:101F18000CE074496E70884207DDA878022802D266
:101F2800401CA87002E02E7000E0AE7000F02CFAA1
:101F380001F0CCF821462060614C21342278002A37
:101F480015D0BB6B984204D2644A904201D28018E3
:101F580008600868E121C01AC900884201D9667082
:101F68002670584840384079442827D028E05549F9
:101F780040398979002905D0514A921E1278D20732
:101F880009D012E04E49891E0978C9070DD00121F0
:101F98003970A67009E0012907D1A670397801299E
:101FA80003D16178491C61703E706178032903D3BD
:101FB8000521617001212170B863D2E7667026702F
:101FC8003F4E3078002807D147480078410703D5AD
:101FD800000701D403F00CFA3949891E08880B461A
:101FE800420830785200C007C00F02430B332878EC
:101FF8001B7818430B4608331B781843C007022385
:10200800800F9A431043202290430A460E321278DA
:10201800D207920E10439A0290430A461D32127854
:10202800D207120D1043DA0290430A462032127882
:10203800D207D20C1043102290430A461A32127863
:10204800D207D20E10435A0290430A46173212782A
:10205800D207520D10431A0290430A4614321278DE
:10206800D207920D1043DA0190430A4611321278D2
:102078000B46D207D20D1043082290430A462F324E
:102088001278D207120F1043402290430A46263294
:102098001278D207520E10430A4629322C3312788E
:1020A8001B781A43D2070423520F98430243D802DD
:1020B80082432078C007800C02430A80FEBD0000DE
:1020C8001C0000205C0800207A0D0000A60E00000D
:1020D800FC080000DC050000080000208051010019
:1020E8008C0A0000B80B0000F6060020F0B50025A9
:1020F800069F079E059C002B02D0012B18D009E0F3
:10210800884203DC6078401C607002E0904213DC77
:102118006570A5706078B84203D3012020700A3733
:102128006770A078B04202D925700A36A670F0BD53
:102138008842E7DA9042EBDA002AE9D0A078401C1E
:10214800A0706570E6E708B500200090684601F0C9
:102158007FFA002800D0009803F010F908BD0000AD
:1021680070B59CB00E46054664216846FFF7D0FC62
:1021780007243046093003E0C82C59D2641CA4B2A5
:102188008442F9D3A01E81B22A4800F06BF90021DD
:102198001991284918AA09390919CB795371097A6B
:1021A80011711999884243D1AA21684601705521B5
:1021B8004170BB2181700321C170057132462946E7
:1021C80003F03EFB0446199018A84179684641710E
:1021D80018A8017968468171E01D81B2684600F04F
:1021E80041F9199018A841795938215418A801794A
:1021F80002A82154A12D01D0A02D03D10E4840786A
:10220800012807D00934A1B2684604F089FA0120F0
:102218001CB070BD0A490948086000F055FDBFF3BD
:102228004F8F09490748C860BFF34F8F00BFFDE7CC
:102238000020EDE719090020DC060020CDAB0000E6
:10224800C00800200400FA0500ED00E070B514484D
:102258000024C179134D002902D18079002803D0C8
:10226800002003F0B3F819E00F4E3078012800D0B1
:10227800002003F0ABF80D4801884A070ED4EA683D
:10228800022A02D2521CEA6070BD3470084A747087
:102298001470547004221143018070BDEC6070BD4D
:1022A8001C0800205C000020400000205400002092
:1022B8003D000020FEB5304A6B4607CA07C32F48C9
:1022C8002F4C0188E5788805C00FCA068001D20F17
:1022D8005201803010433C2D01D2012200E000223F
:1022E80012011043CA04D20FD20010430A05D20FBC
:1022F8000907D200C90F104389000843694688704E
:102308001F4E38204036305E0A21FFF783FB6946AE
:10231800B938C870A07808714D71207A28218022B8
:10232800282802D36B46283802E0081A10436B4667
:102338009871607A282802D31946283802E0081ACA
:1023480010431946C8710F48408B020A0A72487236
:102358003C20305E0A21FFF75DFB6946B938887278
:102368000B21684600F048FA6946C8720C21684695
:1023780003F0FAF9FEBD0000347400081A000020CA
:102388001C080020C008002070B5174D06232846F9
:102398008030AE79C269154801240021002E0CD185
:1023A800FF26F536B24208DB4678761CF6B2467050
:1023B800042E04D94370047001E0417001700B4889
:1023C800ED79C01C002D0CD1FF25F535EA4208DC5B
:1023D8004178491CC9B24170042901D9437004707D
:1023E80070BD4170017070BD1C08002037000020CE
:1023F80030B50346002007240EE01A78504000222A
:102408005B1C050602D54000604000E04000521CFD
:10241800D2B2C0B2082AF4D30A46491EC9B2002A69
:10242800EBD130BD10B500F08BFB00F0B7FE0A49C8
:102438000A4BCA8B9A4204D10A464032D289824258
:1024480001D0012010BD06480A68824202D0086007
:10245800022010BD002010BDC00800201916000081
:102468003412000070B5044600200246064D08E00C
:10247800A65C030A73405B00EB5A0002584080B226
:10248800521C8A42F4D370BD34720008F0B5304F44
:1024980085B00020039078793C462E4964260025B3
:1024A8008034432808D04D7029482B4940792B4F58
:1024B80044280ED04D7018E01422E0696B4646C3DC
:1024C800002800DA4042012300222549FFF70EFECA
:1024D800EAE71422E0696B4646C3002800DA404266
:1024E800012300221F49FFF701FE1F4EE069002863
:1024F80000DA4042B84227DB307800281DD023E0BC
:1025080004F002FAE06100F031F811490A2248713A
:10251800E069C821009601920291002800DA404241
:10252800012300223946FFF7E1FD0A2001F0E6FD0C
:102538000398401CC0B20390D8E70398142803D22C
:10254800034840794428DBD0757005B0F0BD000021
:102558001C080020400000204300002070110100EA
:10256800204E000060EA00004600002030B59625A5
:10257800062400221A4B1B49E8420DDA4A80888853
:10258800401C80B28880CA80012826D97D208C8092
:10259800C000D88044201FE096280CDD4888401CE5
:1025A80080B248808A80CA80012816D94C800E489B
:1025B8009880432010E04A808A80C888401C85B2F1
:1025C800CD80D869002800DA4042962800DADA611E
:1025D800012D02D9CC8049200870087830BD000050
:1025E8009C0800205C0000201A04000070B50C4C08
:1025F800002060610B480C49408B88420DD20B4D7E
:10260800642808D932216438FFF704FA0849484396
:10261800281A206170BD256170BD0648F9E70000E1
:102628009C080020C0080020AC0D0000002A751589
:1026380080EE360000512502F8B5414A414E5279E4
:102648000025414C442A02D0432A2DD03CE0658223
:10265800A28A3C2A01D9657201E0521CA282002894
:1026680000DA40424843C821FFF7D4F9344F803795
:10267800B9694018B8613969884225D3334881421D
:1026880022D9BD61708B401C80B27083642808D940
:1026980032216438FFF7BEF92D4948432D49081AFD
:1026A80000E02C4838610FE0608A2B49884206D345
:1026B800658201206072306A401C306204E0617AF1
:1026C800002901D1401C60822448AF2203781C48AD
:1026D8003C2140301201415E012B0DD191420BDCAF
:1026E8002583E07A002812D10120E0721548403095
:1026F8008189491C81810AE0914207DD208B1E28CF
:1027080002D2401C208302E0E57200E025831448D1
:10271800A17A0088012908D0E582000704D5706AEB
:10272800401C70620120A072F8BD0007FCD4E08A4A
:102738001E2802D2401CE082F8BDA572F8BD000038
:102748001C080020C008002072000020000E270787
:1027580080EE3600002A7515701700002200002050
:102768001A000020F8B51E480024C1791D4D002923
:1027780002D18079002803D0002002F073FF2CE0FA
:10278800194E1A4F3078012814D03878012811D002
:102798001748007801280DD0002002F063FFAC60D4
:1027A80014480078000718D4A868022806D2401CEC
:1027B800A860F8BD012002F055FFF1E7347074708D
:1027C8003C700B487C700470447002F011FE09489C
:1027D8000822018811430180F8BDAC60F8BD0000F3
:1027E8001C0800205C000020430000204600002058
:1027F800490000205400002010B50346002210466E
:1028080004E01C78521C6040D2B25B1C8A42F8D3A8
:1028180010BD10B500F058FA02F018FE10BD000007
:1028280010B5104A0021104811703C23C35E0F48B0
:10283800834201DA012000E00846107002000C48CB
:1028480008D04178491CC9B24170282901D9FFF73D
:10285800E0FF10BD074AFF2413880134A343138007
:10286800417010BD6E0000205C080020FC080000CC
:102878006C0000205400002070B5012001F0B8F869
:102888000126F602144D154C002804D00120E860FA
:10289800208830432080012001F0A0F8002804D0CF
:1028A80001202861208830432080022001F0A0F810
:1028B80001267602002804D00220E86020883043F0
:1028C8002080022001F08AF8002804D00220286124
:1028D80020883043208070BD00180240540000203A
:1028E80070B5082001F084F80A4E0B4CF514002846
:1028F80004D00820F060208828432080082001F0B8
:102908006DF8002804D008203061208828432080F2
:1029180070BD00000018024054000020F8B50124E2
:10292800E403204601F064F8094E0A4D67110028B7
:1029380003D0F460288838432880204601F04EF8F8
:10294800002803D03461288838432880F8BD000067
:10295800001802405400002038B502F0B5FE03F01C
:10296800C1FC184C20690225A8432061FF200421DE
:102978002D3003F0F1FA00F02BF800F0D5FA1248E8
:10298800012102680A4302600068084000900E486E
:1029980009074038C26B0A43C263C06B0840009005
:1029A800012003F02FFE0948C1690902090A6204DF
:1029B8001143C161206928432061012004F07EF998
:1029C80038BD000000E000E04010024004ED00E0E7
:1029D80007480168C908C900491C0160054802691F
:1029E80004210A43026130BF02698A4302617047C9
:1029F8000070004000ED00E030B5164A11680B1871
:102A0800154902E014689C421BD20C69E443E403B4
:102A1800F8D50B69114C2340641C0C618C690125A5
:102A2800AD072C4003D08D6925438D612343002BCE
:102A380001D0012030BD1368181804E013688342E0
:102A480001D3032030BD0B69DB43DB03F6D500203F
:102A580030BD00000000002000200240FA83000082
:102A6800012200211203101A82B210B509480A4B3C
:102A7800006805E04C001C5B944203D8491CC9B2AD
:102A88008142F7DB002901D0814201DDFE2010BD23
:102A9800084610BDD0060020F070000810B5FFF7FA
:102AA800C1FC002808D0012804D104A003F096FF37
:102AB80000F012F800F008F910BD000020466C6123
:102AC8007368496E69742020457272202121212182
:102AD80021212121200D0A007FB500221548134627
:102AE80011460092019202926D4603928418267A4A
:102AF800FF2E01D0012B02D1AE5C01232672521C9D
:102B0800102AF3DB002283182033521C1972202A62
:102B1800F9DB094A0260416001220276032242760B
:102B280041830162034A41624032816491810349D1
:102B3800C1837FBDC00800203412000019160000B0
:102B48003EB55F49002208684968009001916846CF
:102B5800017801724178417281788172C178C172BD
:102B6800584B0298186068460179017241794172A0
:102B780081798172C179C1720298586050480830D1
:102B8800D100081804684568009401956C46C91876
:102B980024780C726C4664784C726C46A4788C72FB
:102BA8006C46E478CC726C4624790C736C46647974
:102BB8004C736C46A4798C736C46E479521CCC73C4
:102BC800022ADDDB8168C2680091019269460978B2
:102BD800197669464978597669468A784A72CA7870
:102BE8000A720989598369460A794A704A790A70CA
:102BF8000988998369468A794A70CA790A70098866
:102C0800D983016942690091019269460A780A727A
:102C18004A784A728A788A72CA78CA72029919629C
:102C280069460A790A724A794A728A798A72CA792D
:102C3800CA720299002218305962D1000818046833
:102C480045680094C91801956C46203124780C72A7
:102C58006C4664784C726C46A4788C726C46E47846
:102C6800CC726C4624790C736C4664794C736C4650
:102C7800A4798C736C46E479521CCC73042ADCDB8F
:102C88008168C068019000916846017801724178B6
:102C9800417281788172C178C172029898646846DD
:102CA8000179417041790170064900884031888175
:102CB800684682794270C27902700088C8813EBD38
:102CC80000F80008C0080020F0B589B00025944E2F
:102CD800079500F063FA014692480190C18172B6E7
:102CE80000F094FC02200490304600F087FB059029
:102CF8000120069007A904A800F02AFC00287DD12D
:102D080088486A46403801680091117811725178F4
:102D1800517291789172D178D17240680090107890
:102D280010735078507390789073D078D073029A5B
:102D3800039B17461C463146012000F045FC00283D
:102D4800DDD130687168784061400843D7D1744C50
:102D580008347448EA0040381018037A69460B7240
:102D6800437A4B72837A8B72C37ACB72037B0B7371
:102D7800437B4B73837B8B73C07BC8731419029A94
:102D8800039B17461E462146012000F01DFC002823
:102D9800B5D120686168784071400843AFD16D1C97
:102DA800022DD6DB25465F4C6846403C217E0172E9
:102DB800617E4172618B0180417881720178C172B4
:102DC800A18B01804178017301784173E18B018007
:102DD800417881730178C173029A039B08351746BD
:102DE8001E462946012000F0EFFB002806D128687E
:102DF800696878407140084300D100E082E0206AA9
:102E08000090684602780272427842728278827232
:102E1800C278C272606A009068460178017341788E
:102E2800417381788173C178C173029A039B083515
:102E380016461C462946012000F0C6FB002861D131
:102E4800286869687040614008435BD12C460834A3
:102E580000253448EA00403810182030037A6946C3
:102E68000B72437A4B72837A8B72C37ACB72037B71
:102E78000B73437B4B73837B8B73C07BC8731419B1
:102E8800029A039B16461F462146012000F09CFB30
:102E9800002837D12168606871407840014331D1FA
:102EA8006D1C042DD5DB1F4825464038806C0090EA
:102EB8006846017801724178417281788172C178DF
:102EC800C17201980835818968460180417801738B
:102ED800017841730198C1896846018041788173FE
:102EE8000178C173029A039B14461E4629460120A5
:102EF80000F06AFB002805D12868696860407140C5
:102F0800084305D000F052FB62B6012009B0F0BDBD
:102F180000F04CFB62B6FFF713FE0020F6E7000056
:102F280000F800080009002010B5052003F074FD22
:102F3800062003F071FD072003F06EFD012000F06C
:102F4800F3FC012000F0E8FC022000F0EDFC012079
:102F5800800300F0E1FC0120C00300F0E5FC022042
:102F680000F0DAFC082000F0DFFC082000F0D4FCB8
:102F780010BD0069814301D00020704701207047CF
:102F8800002A01D08161704781627047F8B5044614
:102F980000204B4D014606464A005219928A00927B
:102FA8006A4652782254401C6A46C0B212782254AB
:102FB800401C491CC9B2C0B21429EDD307E02654FD
:102FC800401CC0B22654401C491CC0B2C9B21829C2
:102FD800F5D33B4A38214032515E00916946497821
:102FE8002154401C6946C0B2097821543C21515EE5
:102FF8000091401C6946C0B249782154401C69467A
:10300800C0B209782154401CC7B23E20105E0A2184
:10301800FEF700FD14214843694600904878E055C2
:103028007F1CF8B209782154401CC7B224480A21F1
:103038008030C069FEF7EEFC2249401869460090CE
:103048004878E0557F1CF8B209782154401CC0B27A
:10305800A9782154EA79A97952001143401C8907BB
:10306800C0B2890F21541849401C0988009169464B
:10307800C0B249782154401C6946C0B2097821542D
:10308800401CC0B2A97C2154401CC0B2697C2154A8
:10309800401CC0B2297A2154401CC0B2697A21541C
:1030A800401CC0B22654401CC0B22654401CC0B2BA
:1030B8002654401CC0B22654401CC0B2F8BD0000C3
:1030C8001C080020307500001A000020F0B5194BCC
:1030D800986818691868184908408102420445062A
:1030E800890E540E6D0E084601F0C4FE06462046B1
:1030F80001F0C0FE0446284601F0BCFE59680546AA
:10310800C020C04308400902C2048706090ED30E36
:10311800BF0E084601F0AEFE184601F0ABFE384679
:1031280001F0A8FEE120000146433C204443301949
:103138004019F0BD002800407F7F7F000949002822
:1031480007D0CA6801200243CA600A6802430A60BD
:1031580070470868400840000860C8684008400098
:10316800C8607047004401400149C86270470000C8
:103178000044014001494862704700000044014092
:1031880005490028086803D00122104308607047E9
:1031980040084000FAE700000044004010B5164817
:1031A80000210CC89A18083843181B7A491C9A1829
:1031B80089B21029F8D3017E8918427E5118428BB2
:1031C80051181C22825E5118C28B5118026A51187C
:1031D800426A52180021431828241C57491CA21877
:1031E80089B22029F7D30449806C40318989801835
:1031F800081880B210BD0000C008002008B50020E3
:103208000090684602F066F9009808BDFEB50024F3
:1032180069468C8005460C72264601A902A803F06F
:103228006DFD00284CD06846007A264F012802D050
:1032380002280DD101E0244801E02348A83000907D
:1032480069468B88387C0422204900F031F9C4B2E1
:10325800BA78502A20D9101B401D0A281CD94B27A0
:103268005A263F01642C0CD26420011B801A7D224F
:10327800D2005043FEF7B8FB80B22880B84203D88A
:1032880004E07D20000128802F8019E0FF21F5311E
:10329800884215D2298013E0111B7D20C000491CEB
:1032A80002290BD907498031A24202D2CB88834236
:1032B80004D3A24204D9C988814201D928805A2658
:1032C8003046FEBD1C080020140400208F0000209A
:1032D800FEB5002469468C8005460C72274601A974
:1032E80002A803F059FD00285DD06846007A324EE6
:1032F800032804D0042804D005280DD128E02F483D
:1033080000E02F48009069468B882C49307C0722C2
:103318000F3900F0CDF8C4B2B078411E132904D992
:10332800142C3BD8317C3C2938D924490122303926
:103338000A70011B7D264A1D36010A2A0DD9002C68
:1033480008D0204948432146FEF74EFB288002E07A
:103358001D48D7E72E805A270DE01A4A491C022932
:1033680006D9A04207D2144880308088904202D9FA
:103378002A805A271DE02888B04201D92E8018E0FB
:103388007D21C900884203D20B4A127C3C2A03D80B
:10339800FF21F53188420CD229800AE00749002034
:1033A8003039087004E0054830380078002800D12A
:1033B800AA273846FEBD00001C080020A2000020F5
:1033C800C80100201A040000EE02002010B50446CF
:1033D800094800218278142A0CD9007C00F026F8CC
:1033E8007D225A2112012080904202D892109042E8
:1033F80000D22280084610BD1C0800201F21C906E3
:103408004018C00A704770B50E460446642130461D
:10341800FEF7EAFA0546C8213046FEF7E5FA001934
:103428002946FEF7E1FAC0B270BD0000F8B51D49A3
:1034380000254E882C46AA008A5A82421AD9002DA5
:1034480008D0AC0063181F46403F095BBA8FFC8F59
:103458005B8803E00A8834461146234691420DD919
:10346800A3420BD9801A1B1B5843891AFEF7D2FABC
:1034780081B204E06D1CEDB2052DDCD300210A48B1
:10348800002D08D0052D0BD26118322905D9FEF779
:10349800ABFA80B2F8BD3146F9E729204001F8BD02
:1034A8000248F8BD64050020289A01001A040000AB
:1034B80070B50024049E04E00D5D854203D8641CA9
:1034C800E4B29442F8D30025002C0BD0002D15D07F
:1034D800601E1521484340194000801940383E219C
:1034E800415E10E06900705E002D04D08A19403AF0
:1034F8003E21515E0DE00021715E0AE0601E15213B
:1035080048434000315E601E152250434019400078
:10351800305E834204DC6D1CEDB2152DD4D301E07E
:10352800002D10D0142D10D881420CDD091A181A5C
:1035380082008018FEF76EFA1421491B8A00891848
:10354800401800B202E0642000E0002080B270BDA4
:10355800F0B506467D200F46C000FFF74DFA00285B
:103568001FD1411E39600F4C756811E06069FF2159
:10357800F9318843E90001430B48014361617D202B
:10358800C000FFF739FA002801D03D6005E06D1C46
:103598007268B1685118A942E8D86169022291435A
:1035A8006161F0BD002002400200010005490120D0
:1035B8004A69C3071A434A614969002900DA0020A9
:1035C8007047000000200240F0B51FB406467D2079
:1035D80017460D46C000FFF70FFA002812D10A4C13
:1035E800012E08D160690121084360612F60BFF393
:1035F8006F8F039868607D20C000FFF7FDF961694F
:10360800B143616105B0F0BD0020024006490020C9
:103618004A69002A07DA054A8A60054A8A604969C0
:10362800002900DA01207047002002402301674585
:10363800AB89EFCDBFF34F8F04490348C860BFF390
:103648004F8F00BFFDE700000400FA0500ED00E021
:10365800F8B52D4E38243C258646345F755F00202A
:10366800641B27460937294D01468446034602460E
:10367800122F01D9012703E0271D082F01D80027A1
:103688006F70234FE4197F00BC4201D900246C708D
:103698003E241D4F345F403F00944C00E419A48A37
:1036A8001C4EB44206D9009EB44203DD0124A44650
:1036B8008C402243491CC9B21429EED37979432995
:1036C80009D1B97B642906D26146012903D16978F9
:1036D800012900D101200021744621600C460127F0
:1036E8003D46A54039462E0309D09940114204D0E1
:1036F800714609682943754629605B1CDBB2641C66
:10370800E4B2192CECD3F8BD5C080020D4060020E4
:10371800E7030000520D000018B5002100918268EF
:10372800D207D20F2DD0C26837239B019A43C260BB
:1037380082683A4B5207D20F07D08268D206D20F5E
:1037480003D182681A40103282600122D2030092AB
:1037580003E0009C641E009409D08468E406E40F2A
:10376800F7D184681C40A41C8460009205E0012104
:10377800F7E7009A521E00923BD082689207D20F58
:10378800F7D1826817231A4230D14268244B1A4075
:1037980042600268DB431A430260826801231B0708
:1037A8009A438260C2681F4B1A40C26002691E4B6E
:1037B8001A40026142691D4B1A404261026A130BAA
:1037C8001B4A1B0313430362436A1B0B1B0313436C
:1037D8004362C36A1B0B1B031343C362826AD20C86
:1037E800D204826203221204009208E001210846F2
:1037F80018BD0121C5E7009A521E00920CD002683C
:103808009204D20FF7D00122520302608030426B3B
:10381800D209D2014263EAE70121F4E7E8FFFF7F1A
:1038280060D4FFFF00023E8302FCFF3F880000F8DF
:103838000000FF0F70B583680022DB07DB0F02D0A2
:103848000122104670BD8C684B68C5682343CC685C
:10385800054E35402C432343C360036909689B0028
:103868009B080B430361ECE7C73FFFFF70B54D684A
:1038780083680022DB07DB0F02D00122104670BDEF
:10388800C46801235B051C420E4B01D0F02D08D003
:103898008D680C680E692C43CD6835432C434D69FF
:1038A80005E0CD680C684E692C430D6935432C43FF
:1038B800C5681D402C43C4604968836A0B43836212
:1038C800DCE700003CC2FEFF10B543690424214038
:1038D80007248C40A3438A401343436110BD000072
:1038E80008B504490A6802430A6009680140009162
:1038F80008BD00004010024002490A6B02430A63F7
:10390800704700000010024002490A6B82430A63B4
:10391800704700000010024002494A6882434A602A
:10392800704700008018024002490A6882430A6012
:10393800704700008018024010B50479002326491A
:103948000268002C41D0002A3DD04479002C12D0C6
:10395800012C18D0022C19D001238279002A32D0E8
:103968001D498039012A19D0022A20D0032A22D0E1
:103978000220034327E04C6894434C6002680C68BB
:1039880014430C60E9E70C68944301E00C681443A5
:103998000C6002684C6814434C60DEE702684C68AF
:1039A80094434C6000680A6802430A600BE00268AE
:1039B8000C68944302E002680C6814430C600068C9
:1039C8004A6802434A60184610BD0C6894430C606C
:1039D80000684A688243F5E780180240034909698C
:1039E800884301D00020704701207047001802402A
:1039F8000349C968884301D00020704701207047F7
:103A0800001802408A07130F054A10B59B181A6E52
:103A1800090C07248C40A243884002431A6610BD53
:103A28000018024010B5052100240907884204D176
:103A3800012000F0BBF801201EE01249884204D1A1
:103A4800022000F0B3F8022016E00F49884204D1A2
:103A5800042000F0ABF804200EE00C49884204D1A1
:103A6800082000F0A3F8082006E00949884206D19A
:103A7800202000F09BF8202000F0A0F800E00124AE
:103A8800204610BD0004005000080050000C0050F3
:103A980000140050F0B500243EE001232A46A3405C
:103AA8001A4038D04F680668134653435D005D19C5
:103AB800AE435F433E4306604E68012E01D0022E9E
:103AC80005D18F6886685F43AE433E4386600F69C1
:103AD800C668AE431D467D432E43C6604D68022D21
:103AE80019D1FF2A0AD84E69056A534353431A016C
:103AF800D21A954373431D4305620CE0130A1A4614
:103B08005A435A435A4313019E1A4D69436A6A43FA
:103B1800B34313434362641C0A681546E240BCD1B0
:103B28004A68012A01D0022A06D1CB6841682A4690
:103B380091435A43114341600020F0BD10B503681A
:103B480049434C000C19A34351430B43036010BD78
:103B580010B5C36849434C000C19A34351430B43A8
:103B6800C36010BD08B504494A6B02434A63496BF8
:103B78000140009108BD00000010024008B504494A
:103B88004A6B02434A63496B0140009108BD00003B
:103B98000010024008B504494A6B02434A63496B66
:103BA8000140009108BD00000010024002494A6A25
:103BB80002434A62704700000010024002494A6A04
:103BC80082434A62704700000010024010B57D2110
:103BD800C900FDF709FF0449401E486100208861BB
:103BE8000520086110BD000000E000E010B50446A3
:103BF80001F0B8F8206001F095F8606001F0A2F8D3
:103C0800A06010BD014610B50020032913D1134A46
:103C1800516903238907890F1B041943DB43C9181A
:103C28000AD001290BD0022911D001F09BF801F02C
:103C380079F801F087F810BD01F094F810BD074934
:103C4800403909684905C90FF8D0054810BDD16940
:103C58008907C90FFAD00120C00310BD40100240E7
:103C68000024F40010B5029C49032406240A1B060C
:103C780021431B0C1943D2B211434268024B1A402C
:103C88000A43426010BD0000C00000FFF8B50126DD
:103C980014460F460546002906D16078C10603D5AB
:103CA800EF2108400A306070CA20686253206862B9
:103CB800284600F041F801282AD0E078002F04D0E7
:103CC80000906378A278217816E00A21FDF78CFE2F
:103CD80000010843C7B260780A21FDF785FE00019C
:103CE8000843C6B2A0780A21FDF77EFE000108430A
:103CF80000972178C2B233462846FFF7B3FF8020E9
:103D08000849C043C860A8698006C00F04D00026CF
:103D1800FF2068623046F8BD284600F0BFF8064626
:103D2800F6E7000000280040012101708170417011
:103D38000021C1707047000018B57D21C9000091AD
:103D4800C16800224906C90F15D1491EC160C16862
:103D58000B4B4906C90F0CE01969C903C90F02D0FA
:103D68000099491E0091C168009C4906C90F002CA2
:103D780003D00029F0D0104618BD0122FBE700004F
:103D880000E000E070B504460126CA200D466062D6
:103D9800532060622046FFF7CFFF012817D029681B
:103DA800A069402290430843A061A8682169C90B13
:103DB800C90301432161A98820697F221204904325
:103DC8000904084320618020C043E0600026FF20EA
:103DD8006062304670BD00001206120A10B50A4330
:103DE8001906090C029C0A43E1B20A430168024B16
:103DF80019401143016010BD808080FFF8B5054669
:103E080014460F4601260020AA6940210A4200D123
:103E18002060CA206862532068622846FFF78CFF3A
:103E280001282AD0A079002F04D000906379227944
:103E3800216816E00A21FDF7D7FD00010843C7B243
:103E480060790A21FDF7D0FD00010843C6B2207948
:103E58000A21FDF7C9FD0001084300972168C2B295
:103E680033462846FFF7B8FF80200849C043C8609A
:103E7800A8698006C00F04D00026FF20686230467B
:103E8800F8BD284600F00AF80646F6E70028004084
:103E980000210160017141718171704738B57D243D
:103EA800E4000094C268002180231A40A13AC2604D
:103EB800C268164B9206D20F0CE01A69D203D20FD1
:103EC80002D0009A521E0092C268009D9206D20F3C
:103ED800002D18D0002AF0D1002912D10094C26810
:103EE8009206D20F0BE01A69D203D20F01D0621EDC
:103EF8000092C268009C9206D20F002C03D0002AC0
:103F0800F1D0084638BD0121FBE7000000E000E0E1
:103F180001490860704700001400002070B5164978
:103F28000024884201D1C5141BE01449884208D1F5
:103F380013480221C26A0A43C262C26A8A43C26241
:103F480017E01049884201D1C5130AE00E4988429A
:103F580002D101256D0404E00C49884208D10125ED
:103F6800AD042846FFF7C8FC2846FFF7CDFC00E063
:103F78000124204670BD0000002C014000040040D0
:103F88000010024000200040004401400048014069
:103F980070B50268174B184D984201D0A84203D15A
:103FA8007024A2434C682243144E154C984208D002
:103FB800A84206D0134DA84203D0B04201D0A04277
:103FC80004D103252D02AA43CD682A4302608A68DA
:103FD800C2620A888262984203D0B04201D0A042ED
:103FE80001D1097C0163416901221143416100202B
:103FF80070BD0000002C0140000400400044014056
:10400800004801400020004041680922D202914343
:10401800416081682A22914381607047FEB5044659
:1040280000680D46012738405CD12969A868EA690B
:10403800084369691143084321682B4A1140084322
:104048002060E968606803221203904308436060B7
:10405800A969A068121190430843A06023488442CC
:1040680003D10320FFF7CEFD06E02148844232D178
:104078006846FFF7BBFD029800282CD06E68002E1A
:1040880029D029680027EA690B2924D80123DB03F2
:104098009A4213D109068A0D16498958FDF7A4FCDE
:1040A8004000710840183146FDF79EFC81B2124865
:1040B80008400907490F0143E1600CE009068A0D31
:1040C8000C498958FDF790FC710840183146FDF7F6
:1040D8008BFC80B2E0602888E16A80B20909090196
:1040E8000143E1623846FEBDF369FFEF0038014045
:1040F8000044004060700008F0FF000008B5054962
:104108000A69009203E00A69D20300D5401E00281C
:10411800F9D108BD00E000E0F0B589B0002268469A
:1041280082807E4900790C884008A1074000C90FA9
:104138000843FD210840E106C90F49000843F7215B
:104148000840A105C90FC9000843EF210840A1068E
:10415800C90F090108430791DF2108407049097810
:10416800C907C90F069149010843BF2108406D4995
:104178000978C907C90F05918901084341066A48AA
:10418800490E0078C007000E01430490684601718B
:1041980040794108654849000078C007C00F0143CD
:1041A8000390684641716248457903468033014669
:1041B80040313C2602918E5F817BC07B8E468446CF
:1041C8005C48432D08D0027169468988002908D0C7
:1041D80059499980427015E0017903290DD969463A
:1041E8008A8056498E4205DD71466E2902D26146A3
:1041F800052905D8432D03D004E0491C0171E3E7E4
:104208000121417069460A800978E7074908490091
:10421800FF0F3943FD2739406705FF0F7F003943FA
:10422800FB273940A704FF0FBF003943E405F727F0
:10423800E40F3940E4002143EF242140079C214347
:10424800DF242140039C64012143BF242140069CB4
:10425800A40121434C060499640E0C4369460C7072
:1042680049784C08059964000C43FD210C403449F9
:104278000978C907890F0C4369464C7031498E4249
:1042880002DC04210C4301E0FB210C4069464C7020
:10429800274C442D0AD042716946098800290AD062
:1042A8007D21C270C900D98002701EE041790329BE
:1042B80013D969460A80C178002911D00299382398
:1042C800CB5E21498B4205DA7146642902D26146E8
:1042D800052908D8442D06D007E0491C4171DBE7C1
:1042E8000121C17001E001210170E37941788B421D
:1042F80003D1A4790578AC420ED0012904D1012B51
:1043080002D08278002A04D0007801F0BDF909B003
:10431800F0BD01218170FAE78270F8E71A000020E9
:1043280043000020460000204900002040000020F3
:104338001C080020C80600201A040000FC08000021
:1043480025000020DC050000A60E000030B591B065
:1043580000240C940D940E94182168460F94FDF7D0
:10436800D7FB182106A8FDF7D3FB424D2846FFF7D7
:10437800D3F941480121026809050A43026000682F
:10438800084010903C4801214038426B0A43426380
:10439800406B0A9408401090202006900320079054
:1043A800052006A90007FFF775FB02200690E868BC
:1043B800012149058843E86048020C900D940E9449
:1043C8000CA90F942846FFF735FAF02000940190C5
:1043D800029403940494694605942846FFF746FA24
:1043E80028694008400028612869E9048843286151
:1043F800072200212846FFF767FA07221F492846A7
:10440800FFF762FAA8681E49084001210907084316
:10441800A8601C481C4940890880FDF72DFC1C48F1
:104428001A490068FDF7E0FA142148430A21FDF70C
:10443800DBFA00E0401E0028FCD116480322016880
:10444800D2040F239B0499431143016001220168A0
:10445800920507239B05994311430160A86A092126
:10446800000900010843A86268695111884368611E
:1044780011B030BD002401404010024004FFFF0786
:10448800E8FFFF7FA075FF1F04000020400D030018
:104498001400002008270140F0B589B000250095D8
:1044A800182102A80195FDF733FB4A48C16949085C
:1044B8004900C1610321C9040020FFF7A3FA464956
:1044C8000020FFF79FFA0121C9040020FFF79AFA9C
:1044D80000210846FFF796FA05200122042100076B
:1044E800FEF74EFD08260124052002960395069541
:1044F80002A9000707950494FFF7CCFAE703F81C14
:104508000290052002A90007FFF7C4FA6846009444
:10451800457184710471FFF70FFA02200090684614
:10452800457184710471FFF707FA68460097457171
:1045380084710471FFF700FA68460096457184712A
:104548000471FFF7F9F90520002208210007FFF799
:10455800FFFA0520002201210007FFF7F9FA0520DC
:10456800002202210007FFF7F3FA0520002239464E
:104578000007FFF7EDFA0520002208210007FFF7E2
:10458800DDFA0520002201210007FFF7D7FA0520F0
:10459800002202210007FFF7D1FA05200022394640
:1045A8000007FFF7CBFA0021052002F069FA052081
:1045B80002F042FA0021062002F062FA062002F018
:1045C8003BFA0021072002F05BFA072002F034FAD8
:1045D80009B0F0BD4010024003001800F0B587B0E4
:1045E80018216846FDF794FA052636073046FFF786
:1045F80019FA2448FFF716FA2348FFF713FA234855
:10460800FFF710FA2248C16949084900C161012031
:10461800FFF7A8FA0220FFF7A5FA01240025402792
:104628000194039569463046009704950294FFF774
:1046380031FAB762E003009069461248FFF72AFA98
:1046480014480090694601953046FFF723FA042084
:104658000090019403946946049502943046FFF74C
:1046680019FA6403694630460094FFF713FA6500A7
:10467800694630460095FFF70DFAB562B46207B097
:10468800F0BD00000004005000080050000C00506D
:104698004010024003800000F0B587B000252E4886
:1046A800039501688215114301602C48C169D20144
:1046B8001143C161011529484038C26B0A43C263DE
:1046C800C06B0840264906900868FF273A049043C3
:1046D8000122D205104308600126224904200860FF
:1046E8007F20214C049003A905972046FFF74AFB39
:1046F8001E480178012921D006706846FFF7C8FBDB
:1047080002A8FFF711FB0E20694608713220487194
:104718008D716A46002120460095FFF76FFB022045
:1047280069460872062048728E721520C87202AA5D
:1047380000212046FFF7AAFA07B0F0BDCA20606240
:1047480053206062A0698006C00F02D12046FFF79F
:10475800A5FB6762F0E700000070004040100240CF
:1047680000E400E000E100E0002800400C00002028
:1047780000B585B014216846FDF7CAF90120400448
:10478800FFF7AEF80021152002F09CF9152002F081
:104798005FF90F2069460880FF210020F53102915A
:1047A80001900390694608740248FFF7F1FB05B0D1
:1047B80000BD000000440140F0B58FB0202106A8DC
:1047C800FDF7A6F918216846FDF7A2F92B48012143
:1047D800026889030A430260006808400E900120BD
:1047E800FFF7CCF901200024012540020527059593
:1047F80002263F07009002940394694601960494A8
:104808003846FFF747F9A8020595009002940394EB
:104818006946019604943846FFF73CF901211B20AC
:1048280002F072F91B2002F01FF9E1204002079004
:104838000894069409940A940C940D940C20104C36
:104848000B9006A92046FFF7E9FB2046FFF7DCFBA3
:104858002068202108432060206810210843206038
:10486800206828432060E0698002C00FFBD0E0691F
:104878004002C00FF7D00FB0F0BD0000401002405A
:104888000038014030B58FB020216846FDF740F967
:10489800182108A8FDF73CF92D48C26A01214904EE
:1048A8000A43C262C26A8A43C262C26B0A43C263D3
:1048B800C06B08400E900120FFF760F908200890AF
:1048C800022000240990012505200A940B9408A9C8
:1048D8000D950C940007FFF7DDF8E12080010190A9
:1048E8000294009403940494069407940420194CA9
:1048F800059069462046FFF791FBA0680521C00096
:10490800C00849070843A060A068072149068843F2
:10491800052149060843A0602046FFF775FB0021E2
:104928001C2002F0F1F81C2002F09EF820682021DB
:10493800084320602068102108432060206828432D
:104948002060E0694002C00FFBD00FB030BD00000E
:10495800001002400044004070470000F0B5B3B0BA
:104968000646642119A8FDF7D3F864216846FDF7C7
:10497800CFF8002730A80772684606703C466E4696
:1049880006E030A8007A70556D1C641CEDB2E4B2E4
:1049980032A800F003FB002801D0322CF1D377486D
:1049A800062C078047803DD375A16846FDF7BBF804
:1049B800002821D0744801F0F7F87348401C01F032
:1049C800F3F87148801C01F0EFF8C120800001F075
:1049D800EBF8F520000201F0E7F8FF20013001F0C4
:1049E800E3F80F20000301F0DFF8F120000201F0E6
:1049F800DBF87920400213E064A16846FDF793F8DC
:104A0800002811D06048103001F0CEF85E4811300F
:104A180001F0CAF85C48123001F0C6F8C5208000E1
:104A280001F0C2F833B0F0BD5AA16846FDF77BF833
:104A38005A4D002808D032A800F0B0FA0028F1D06A
:104A480030A8007AE870EDE755A16846FDF76BF8E5
:104A58005A2700280ED0072CE4D36846C0795A2874
:104A6800E0D168785A2801D06F70DBE75A20C0433C
:104A78006870D7E74CA16846FDF755F800280ED0B6
:104A8800072CCFD36846C0795A28CBD1A8785A28A2
:104A980001D0AF70C6E75A20C043A870C2E744A14E
:104AA8006846FDF740F800280AD00120400201F0CE
:104AB8007BF8002001F020FA002001F0CFF9B1E7DF
:104AC8003DA16846FDF72FF8002802D05520287030
:104AD800A8E73BA16846FDF726F83B4F3B4D002869
:104AE80018D00020A41FA0420FDA2918203108236B
:104AF80037180722CB56BA56934206D0324B0127B5
:104B08001B883B43304F3B800A72401CC0B21828B8
:104B1800E9D387E72EA16846FDF705F8002813D0EA
:104B28000020A41FA0420ADA2A183118137AC9797A
:104B38008B4204D011723988012211433980401CFC
:104B4800C0B21028EED36DE723A16846FCF7EBFF4F
:104B580000288AD0032118A80171FB214171002087
:104B680019A92A180B18401C127AC0B29A7010287A
:104B7800F7D3122119A800F065F953E72E07002092
:104B880047544453445243000103000047544453DC
:104B9800445254004754445343535200BC08002025
:104BA8004754445344535000475444534C535000C3
:104BB80047544453415243004754445343434300EA
:104BC800475444534153430054000020C008002078
:104BD80047544453494453004754445349445200AA
:104BE8007047000070B501F08FFE324CE06120463E
:104BF80020300178552907D100210170FEF7FEFA0F
:104C08002D498883FEF760F8E069FDF7AFFC294D70
:104C1800803D6871FDF73AFC00F04AFC00F0C8FCE2
:104C28002648274A0178C806C00FA8718806C00F11
:104C3800E8712448137800780607F60F3343137099
:104C4800214A40071378C00F034313701F4A0423F7
:104C580010889843CB075B0F184389070823C90FAF
:104C68009843C90008431080FFF756FAFDF77AFD0C
:104C7800FDF7ECFA6879442817D0432817D0144870
:104C8800144A20811068114B5968401A00D54042D7
:104C980081B26180106858602289E06900F038F9B3
:104CA8006188E069FDF7C8FC70BDA088E8E7E08886
:104CB800E6E700009C080020C0080020F806002055
:104CC80049000020F60600201C00002054000020A7
:104CD8001A0400000000002070B501F0C9FDFDF7BE
:104CE80032FA01F087FDFDF77BF801F00FFC00F0C8
:104CF800E5F80A4C21696069FEF785FB2546803D89
:104D0800A87007492069FEF77EFBE87001F048FBB0
:104D1800FDF786FD01F006FA70BD00009C08002032
:104D2800002A7515054989688A093C210A400A4004
:104D38000349895CC906C90EC84070470010024083
:104D48009070000805498968054A4904490F890097
:104D5800515CC906C90EC8407047000000100240E7
:104D6800D070000810B50B49886838221040082810
:104D78000AD010280AD0086801218004400F814019
:104D88000548FCF731FE10BD044810BD00F008F8D6
:104D980010BD0000001002400024F40000127A0048
:104DA80010B50D4AD0680D498007800F022802D03F
:104DB800032800D14910D068440FD0684006430F3B
:104DC800D068641C4004400E4843591CFCF70CFE94
:104DD8002146FCF709FE10BD001002400024F40033
:104DE80010B503460022104603E09C5C6040521C4C
:104DF800D2B28A42F9D310BDF8B5002568460570CD
:104E08000F4C012615E0257304E0684600F0C6F84B
:104E1800002807D0684600784728F6D1207B00286C
:104E280007D101E0267304E0A57368460078FFF710
:104E380095FD684600F0B2F80028E4D1F8BD0000FE
:104E4800EE07002030B5094C094B09E002789A6258
:104E58002246401CDD696D06ED0F01D1521EF9D2C4
:104E68000A46491E89B2002AF0D130BDFFFF000072
:104E78000038014001090A2200075143000F401879
:104E8800C0B270470B48016DC907C90F03D0C16D87
:104E980001221143C165016D4907C90F08D0C16DD1
:104EA80004221143C165044892010188114301801D
:104EB80070470000002800405400002070B51249D7
:104EC800114C497900208034104D432908D04429D9
:104ED80010D128461030FEF7FBF9AA280BD00EE0B7
:104EE8000020287009481030FEF790F95A2801D19F
:104EF800298AE18070BD05481030FEF767FA5A2804
:104F0800F8D1298AA18070BD1C08002072000020F9
:104F180070B515460A460024C1172346FCF7B4FDB0
:104F28002A462346FCF7B0FD7D22D2000023FCF779
:104F380085FDC8220023FCF781FD0025144A2B4675
:104F480012882D1A8B4101DAD30603D4002903DA1B
:104F5800920601D5002001460E4A938994819B1C34
:104F6800DD17C01A0C4AA9415369002906DA00283E
:104F780001DB014600E041428B4202D31818506120
:104F880000E0546151691069814200D3506170BDDD
:104F980054000020720000209C08002010B50B4C23
:104FA80021886288914203D100202080608010BD52
:104FB800064A121D895C01702088C821401C80B2F5
:104FC800FCF712FD2180012010BD00002E070020F3
:104FD80010B5094C6288211D50546088C821401CB6
:104FE80080B2FCF701FD61802088814203D1C8218D
:104FF800FCF7FAFC218010BD2E07002070B5104E7A
:105008000501AC190022E168A068FDF7B9FF01208D
:1050180001F0CCFA705901226168FDF7B1FF022056
:1050280001F0C4FA705900226168FDF7A9FF022057
:1050380001F0BCFA0122E168A068FDF7A1FF70BD8C
:10504800FC06002070B50E4E0501AC190122E1687E
:10505800A068FDF795FF012001F0A8FA7059012218
:105068006168FDF78DFF022001F0A0FA7059002257
:105078006168FDF785FF022001F098FA70BD000015
:10508800FC060020F8B507010024144826463D1800
:10509800022001F08BFA11480122C0596968FDF716
:1050A8006FFF012001F082FA6006040EE968A86823
:1050B800FDF75FFF002801D0641CE4B2012001F075
:1050C80075FA06480022C0596968FDF759FF761C31
:1050D800F6B2082EDCD32046F8BD0000FC060020FE
:1050E800F8B50701174800250E463C183006E16858
:1050F800A06801D5012200E00022FDF741FF012050
:1051080001F054FA0F480122C0596168FDF738FFD1
:105118007006060E022001F049FA0A480022C0591A
:105128006168FDF72DFF012001F040FA072D04D139
:105138000122E168A068FDF723FF6D1CEDB2082D80
:10514800D4D3F8BDFC06002070B5124E0501AC1989
:105158000122E168A068FDF713FF012001F026FA9B
:10516800705901226168FDF70BFF042001F01EFA57
:105178000022E168A068FDF703FF042001F016FA99
:10518800705900226168FDF7FBFE012001F00EFA5C
:1051980070BD0000FC06002070B50E4E0501AC196C
:1051A8000022E168A068FDF7EBFE022001F0FEF99D
:1051B800705901226168FDF7E3FE012001F0F6F95C
:1051C8000122E168A068FDF7DBFE022001F0EEF99C
:1051D80070BD0000FC060020F8B5124E0501AC19A0
:1051E8000122E168A068FDF7CBFE022001F0DEF99C
:1051F800705901226168FDF7C3FE012001F0D6F95C
:10520800E168A068FDF7B5FEC7B2012001F0CEF94C
:10521800705900226168FDF7B3FE022001F0C6F95B
:105228003846F8BDFC06002030B587B00546182181
:105238006846FCF76DFC0220FEF7ACFC0120FEF787
:10524800A9FC0121002004900191039102910A48D0
:1052580029010C186268009240586946FEF71AFC4A
:10526800E06800906946A068FEF714FC2846FFF73E
:1052780093FF07B030BD0000FC060020F7B51646C6
:105288000F46002432463946009800F079FB0500A5
:1052980006D00120FEF732FF641CE4B2052CF1D3DE
:1052A8002846FEBDF8B5054612A000680090002407
:1052B8006846417082702646022D01D30020F8BD51
:1052C8000321FDF795F86946C8702846FFF73CFFAB
:1052D8006F46395D2846FFF703FF2846FFF77CFF36
:1052E800641CE4B2042CF4D32846FFF755FF30467B
:1052F800F8BD00003600000038B50546FFF794FFFA
:10530800862209212846FFF7CDFF50220A21284688
:10531800FFF7C8FF5121C9006846018042780B2178
:105328002846FFF7BFFF684602780C212846FFF79A
:10533800B9FF114808240178CA08D2002243F02195
:105348000A43027006212846FFF7ACFF0A48FD22EF
:10535800801E017849084900114004221143214365
:105368008F2211404A06520E027004212846FFF788
:1053780099FF002038BD0000F506002010B5C206D0
:105388000446D20E08210020FFF78CFFA005C20EAC
:1053980007210020FFF786FF6004C20E08210120C4
:1053A800FFF780FF2003C20E07210120FFF77AFFD5
:1053B800E001C20E08210220FFF774FFA000C20E10
:1053C80007210220FFF76EFF002010BD10B5074926
:1053D800C0070A78C00F5208520002430A7004211D
:1053E8000020FFF75FFF002010BD0000F30600203B
:1053F80010B5154C80202278042102432270002029
:10540800FFF750FF227804210120FFF74BFF227895
:1054180004210220FFF746FF0A20FEF76FFE2078DE
:1054280004214206520E22700020FFF73BFF22782B
:1054380004210120FFF736FF227804210220FFF71C
:1054480031FF002010BD0000F306002010B5164CF7
:10545800202120783322084320700D210220FFF7F5
:1054680021FF227804210220FFF71CFF33220D219F
:105478000120FFF717FF227804210120FFF712FF10
:1054880033220D210020FFF70DFF22780421002090
:10549800FFF708FF0548FEF731FE2078DF210840B6
:1054A8002070002010BD0000F306002088130000C3
:1054B80008B500206A4602210090FFF7DFFE0028A9
:1054C80003D16846024900780870002008BD000032
:1054D800F80600201CB5044601AA2A210020FFF77F
:1054E800CDFE68460179417041790170008801213B
:1054F8000903884204D30721490308436946088001
:1055080069460020085E074AC1170023FCF7BCFA69
:10551800192252020023FCF791FA40422060002031
:105528001CBD0000E1F505007CB505460024E00F30
:10553800001941084900611A49002231C005C9B261
:10554800000E6A46FFF79AFE684601784171417875
:10555800017161008088641C6852062CE7DB00201A
:105568007CBD00007FB500240646254668460572C6
:1055780045720A212046FCF74DFA49000E31C9B29E
:10558800C0B202AAFFF77AFE6846017A4170417AF2
:1055980001700088054948436100000C641C705282
:1055A800192CE3DB002004B070BD00000077010077
:1055B800F8B500206A4601460090FFF75FFE284EC6
:1055C800751C002805D16846007830706846407818
:1055D8002870234C2878241FC1072278C90F11434B
:1055E8002170400702D50020FFF786FE6A46002199
:1055F8000120FFF743FE002809D169463078097871
:105608000843307069462878497808432870287814
:105618002278C107890F11432170400702D5012064
:10562800FFF76AFE6A4600210220FFF727FE0028DE
:1056380009D1694630780978084330706946287876
:1056480049780843287028782278C107490F114300
:105658002170400702D50220FFF74EFE0020F8BD5A
:10566800F606002010B50749FD230A78C0071A403E
:10567800800F02430A7004210020FFF713FE002068
:1056880010BD0000F306002010B50E4CC0072278AC
:10569800C00F520852000243FD200240C807800F85
:1056A8000243227005210020FFF7FCFD2278052126
:1056B8000120FFF7F7FD227805210220FFF7F2FD10
:1056C800002010BDF406002010B570220321002030
:1056D800FFF7E8FD702203210120FFF7E3FD7022A8
:1056E80003210220FFF7DEFD002010BD70B51D4D1F
:1056F800064628780024C208D200F7200240F007A6
:10570800C00FC1000A43EF210A4000010243E02014
:1057180002432A7006210020FFF7C4FD2A780621DB
:105728000120FFF7BFFD2A7806210220FFF7BAFD06
:10573800012E11D10A20FEF7E1FCED1EFFF738FF1C
:105748002978072901D1002808D00220FEF7D6FCC5
:10575800641CE4B2052CF1D3002070BD0020287031
:10576800FAE70000F506002070B500240F4D04E0AC
:105778002A19035DC0325374641C8C42F8DB00F0B4
:10578800EBF901202870EC710220E870084900202C
:10579800487088701420FEF7B1FCFF20F530FDF743
:1057A800E3FC0120FDF7CAFC70BD000010090020D1
:1057B800EE06002070B5204A9168411A00D549428A
:1057C8001D4C7D23DB000C34994220DD906021784C
:1057D80005200007012913D0217901290DD00122C4
:1057E80004210546FDF7CCFB1420FEF787FC0821B1
:1057F8002846FDF7BEFB207109E0FCF75BFD06E0DB
:10580800A1780122491CA1700421FDF7B9FB207879
:105818000A4D012802D0A87801280BD1A0780026CB
:10582800052800D32670A878012803D1A67000F0B7
:1058380003F9AE7070BD0000DC06002010090020DE
:10584800F8B507243C4E01233C4DE1292ED006DC57
:10585800A02909D0A4290CD0E02969D10CE0EB29B2
:1058680040D0FE2964D10DE0334833700C384370C2
:105878005EE0C37108245BE03370C01DFDF786FB52
:10588800C41D55E033707821C17166210172192158
:10589800417265218172C37214210173417383734C
:1058A8000221C1736C210174112441E03370698BAA
:1058B800090AC171A97E0172A98C090A4172A98CD1
:1058C80081721E4940318A89120AC272097B0173AA
:1058D800298C090A4173298C817319491024C978C4
:1058E800C17325E017493370087C632805D1487CCB
:1058F800632802D1887C632803D00720072A07D8A9
:1059080016E00F485521A030017011E014280FD27D
:105918002E180B1877785B7A9F4205D073700A4B64
:1059280001271E883E431E80401CC0B29042EDD322
:10593800E41FA0B2F8BD0000E8060020C00800205F
:105948001C080020100900205400002010B50A4847
:105958000021C278032A07D0022A09D00748016823
:1059680049084900016010BD017200F093F810BDAC
:10597800017200F02DFB10BD100900200044014009
:105988007CB50546002000900190107014465070B8
:10599800022D01D300207CBD36226846027041707A
:1059A800372181702846FFF7CFFB684601782846E3
:1059B800FFF796FB2846FFF70FFC68464178284614
:1059C800FFF78EFB2846FFF707FC2846FFF7BCFBCE
:1059D800684681782846FFF783FB2846FFF7FCFBDB
:1059E8002846FFF74FFB01466846C1702846FFF777
:1059F80005FB2846FFF746FB014668460171284625
:105A0800FFF7FCFA2846FFF73DFB06462846FFF756
:105A180019FB2846FFF7C0FB05216846FCF7E8FCA0
:105A2800B04206D16846C078207068460079607038
:105A3800B0E701207CBD000008B5144A0021907928
:105A4800052801D2917108BD114B012018701871F9
:105A58000E48807A5528F6D10C48C07ABB28F2D176
:105A68000A48007B0328EED10848407B009107498B
:105A78008B7B69464B700549CB7B69460B70009957
:105A8800AA2389B25372FCF76BFB08BD10090020EA
:105A9800E806002070B52E4E052031780007002555
:105AA8002C4C012909D0022916D0052932D0062903
:105AB80011D00020FDF742FB46E000220421FDF74B
:105AC8005FFA2078401CC0B22070022803D302205D
:105AD80030702570657070BDA17862787118C0311A
:105AE800497CD140CA07D20F0421FDF749FA207832
:105AF800401CC0B220700228EDD325706078401C8D
:105B0800C0B260700828E6D305203070A078401C29
:105B1800A07070BD01220421FDF732FA2078401CE4
:105B2800C0B220700228F4D325706570F079A1788E
:105B3800884202D90120307070BD0020FDF7FEFABE
:105B4800A570357000F018F80020FDF713FB70BD44
:105B580010090020EE06002010B50020FDF710FB0C
:105B680003490020C87003498871487110BD0000BE
:105B7800EE0600201009002070B50520012204213E
:105B88000007FDF7FDF9054C00250549E5700120E2
:105B9800C870FDF7F5FAA571657170BD1009002090
:105BA800EE06002070470000F0B58BB000250646D1
:105BB8009E48039504950595027A69468A810A925A
:105BC800427ACA810692827C01920A820392407CC0
:105BD8000790488209902F4664219548FBF798FF63
:105BE80094483207331A924C0321120F864215D07B
:105BF80015DC9148331A864209D009DCF01FF938C0
:105C080030D0FF38401E66D0FF38022862D189E0C4
:105C1800012B7DD0022B7BD00F2BF7D1ADE0874E27
:105C2800981BB34275D00DDC012BF7D0022B71D035
:105C38008348C342EAD12170F02060700198A070B7
:105C48000798D0E0FF38401E79D003221202904214
:105C5800DCD12170F52060707A48007901286FD076
:105C68000120CBE0784B714D1878794F2A18167AB5
:105C78002170764AA1216170B21801013605F61922
:105C8800360F3143401CA170C007E270C00F2E468A
:105C980018708036B089010A217160710A21F06993
:105CA800FBF7B8FE0112A171E071A878207260724A
:105CB80068497069FBF798FE010AA172E07200203A
:105CC80020736073E878A0730F215948FFF788F8AC
:105CD800E0731025A4E02170A2205F496070488B12
:105CE800020AA270E070002020716071A071E0715A
:105CF8000820CA19127A2254401C7F1CFFB2C0B275
:105D0800102FF6D330212154401CC0B2192102E0D3
:105D180008E057E031E02154401CC0B22154401C37
:105D2800C5B222E02170A3206070711EC800401A1D
:105D3800A270F1B20325CA00C0B2521A13E04BE0B8
:105D48005BE0142806D23949430059188B8A190A8E
:105D5800615501E0002363556D1CE9B26354491C89
:105D6800401CCDB2C0B28242EBD829463048FFF77A
:105D780037F860556D1CEDB252E02170A3206070B9
:105D8800501EC100081AA2700325D100C0B28A1A99
:105D980015E014280AD22C49D231095C4B0023495A
:105DA80059184031CB88190A615501E00023635521
:105DB8006D1CE9B26354491C401CCDB2C0B282428A
:105DC800E7D8D2E72170F12060700020A070E07061
:105DD80020716071A0711CE02170F220607013487E
:105DE800C179A1708079E0700020207105211048E8
:105DF800FEF7F6FF6071062512E00020A0700A98F1
:105E0800E07006982071039860710998A07168463F
:105E1800808AE07108210648FEF7E2FF2072092512
:105E280029460348FFF70EF80BB0F0BD1C08002008
:105E3800A90A00201203000002030000EEED000092
:105E48001213FFFFE80600202C0700201B090000A2
:105E58000000B09120BF0200C008002070B50026E5
:105E680064212348FBF754FE214C03202070F320C3
:105E780060700E20A070A620E0700A2020718C208F
:105E880060710220A0715820E07107202072D02094
:105E980060720820A072FC20E07200202073C821E4
:105EA80061736E21A17364220F21E27321741E2194
:105EB80061740521A174DC21E174AA212175607542
:105EC800A0750C48172581192031097A61556D1C78
:105ED800761CF6B2EDB2182EF5D329460448FEF723
:105EE8007FFF60556D1CE9B20148FEF7ABFF70BD3E
:105EF800A90A0020C008002010B564211548FBF746
:105F080007FE144C03202070F42060700D20A07050
:105F18007A20E0700B202071B82060710920A071F0
:105F28006020E071642020725A2060721921A172E9
:105F38002121E1720A202073F02060739B20A07356
:105F48000F212046FEF74CFFE07310212046FEF794
:105F580079FF10BDA90A002070B51A4ACA235362F6
:105F68005323536293691515AB439361D36D04248E
:105F78002343D365D3685B060AD4134C2668D368D9
:105F88005B0705D423689B1B00D55B42642BF6DBBB
:105F980050619069C008C0009061906908439061A1
:105FA8000A4801230168DB0419430160906959110B
:105FB80008439061906928439061FF205062002057
:105FC80070BD00000028004000000020801802403A
:105FD800F8B5514E052031780727000700254F4CAA
:105FE8000B0000F00BFD0792059249197C139200F3
:105FF8002178491CC9B22170602908D301220421E3
:10600800FCF7BEFF0420307025706570F8BD0022D3
:106018000421FCF7B5FFF8BD052008210007FCF7AF
:10602800A8FF3F49002802D12078002821D001206C
:1060380008710520002204210007FCF7A1FF37485A
:106048000178491CCCB20470817840787118C0314D
:10605800497C381AC140C807C00F0221081A032119
:10606800FBF7C2FCA142D6D82C480570032030703B
:10607800F8BD37700D71F8BD01220421FCF780FFCF
:1060880026480178491CCAB20270009222498478D5
:1060980046780919C031497CB81BC140C807C00FF0
:1060A8000321401CFBF7A0FC009A9142E3D81B484F
:1060B800761CF1B205704170082902D3641C847003
:1060C800457041784907490F417013498078CA796A
:1060D800824201D8052000E004200870F8BD0022A3
:1060E8000421FCF74DFF2078401CC0B220706028C6
:1060F800F4D325706570A5703570F5700020FDF734
:106108001DF80020FDF736F8F8BD6570A570F5702C
:10611800FFF732FDF2E7000010090020EE0600202C
:10612800E8060020F8B50021684601806348C06988
:10613800002800DA4042624C962805DD20780A28BB
:1061480003D2401C207000E021705E4800790128CD
:106158006846007817D0400840006A461070574AD1
:10616800803AD57B1346DB79AC460F2D01D8012B3D
:106178000CD0FD2528406D462870927B642A08D3F0
:106188000422104307E001221043E6E702252843D2
:10619800F1E7FB2210402870484D3826403D2A463A
:1061A800AE5F494F403A9279BE4201DD012A09D0DB
:1061B800F72630406E4630702678002E05D010261F
:1061C800304304E008263043F4E7EF2630406E46BB
:1061D80030703E4E3E4F36883E4202D02026304335
:1061E80001E0DF2630406E46307066461E2E01D82C
:1061F800012A0DD0BF2210406A4610703048801C1A
:1062080002786846002A06D046780120064305E051
:1062180040221043F0E7407846087600684646700A
:106228003C20285E2B4DA84201DA012B12D0FD201C
:106238000640FB20284D06402888C304DB0F9B003E
:106248001E436B465E70254B9B7B322B05D2082381
:106258001E4304E002200643EBE7F7231E406B468B
:106268005E701F88FF2301335E01002F07D0B04303
:10627800A1802880002A01D198432880F8BDA188F0
:10628800491C89B2A1803C2901D88104F6D507218F
:10629800490288439843B0432880FCF75DFB28886F
:1062A800C10506D50B480E49E63808803220A08083
:1062B800F8BD0005C10F03480171F8BD9C08002016
:1062C8006C000020E8060020AC0D00001A00002039
:1062D8006D0300001A09000054000020EE0700209A
:1062E8007E00002010B586B018216846FBF710FC28
:1062F800244C2046FDF712FE20684008400020602C
:106308002148016849084900016020480168490896
:1063180049000160402005242407A062C001A06153
:10632800410001222046FCF72BFE7D20C000FDF72E
:10633800E5FE0220FDF716FC0420FDF713FC0820FB
:10634800FDF710FC0120FDF70DFC01200290002054
:1063580003900490032001900D48009069460D4871
:10636800FDF798FB69460C48FDF794FB69460B4816
:10637800FDF790FB69462046FDF78CFBFEF78CF88D
:1063880006B010BD00440140004400400038014000
:10639800FFFF000000040050000C005000080050EF
:1063A800F0B54F4A3C25104640308446455F4D487D
:1063B800937820240188022B04D24B4EB54201DD8C
:1063C800214300E0A143464C018040343827102186
:1063D800E75F622B06D9E1231B019F4202DA03889B
:1063E8000B4301E003888B4303803D4B5679803390
:1063F80000213E485C69DA69432E0FD03C4E3D4F80
:106408009619BE425ED88170C826C171F24232DA4E
:1064180082790A2A2DD2521C82712DE08171C170B5
:10642800C5790A2D02D26D1CC57100E00171324D8B
:106438007D19324FBD4210D966463E25755F2E4EF6
:106448004636AD192D4E4636B54210D8002A00DA28
:1064580052427D25ED00AA4209DA8278521CD2B256
:106468008270032A1ED98170012242711AE081705C
:1064780018E0417100E081717D22D200AA1A1F4DF7
:106488001E3DAA4203D91E4A1278920709D5C2783E
:10649800521CD2B2C270032A04D9C17001220271FF
:1064A80012E0C1700279012A0ED04279012A08D17E
:1064B800144D1A695519AC420ED2124840422018A0
:1064C8005861F0BDC170D2E70F4A944201D95042D9
:1064D800F5E759610171F0BD5A614171F0BD0000E5
:1064E8001C08002054000020EA0B00007200002065
:1064F800EF550000DEAB0000DCF1FFFF6405000093
:106508001A0000208011C9FF40771B003EB5002407
:1065180069460C728C8020494878032802D2401CB6
:1065280048703EBD1D4D28788007FAD401A902A8FD
:1065380000F098FC0028F4D06846017A1848002931
:1065480021D0012902D0022910D101E0154901E02A
:106558001449A831009169468B880F49007C0422B0
:106568001D31FCF7A5FFC4B2642CDAD828880221B3
:10657800084328800A4D642180352869FBF734FADE
:10658800604368613EBD0849009169468B880249AD
:106598000822007C2831E4E7720000205400002023
:1065A8001C08002014040020780500200A21484314
:1065B8000004000C01D0401EFAE7704710B5A42172
:1065C8000848FBF7A5FA08490020088007497D22FA
:1065D80008800448064980308180D200C280018149
:1065E80010BD00001C0800201A00002054000020E4
:1065F8001A04000002480168491C01607047000045
:106608000000002070B527490B688A1513430B60FA
:106618000B685B05DB0FFBD0224C4034236A012555
:106628002B432362236A9B07DB0FFBD01E4B1D689D
:1066380015431D60002807D1E269012000040243C8
:10664800E261E2698243E26188680F2212029043A4
:1066580088608868C008C00088603822886810424E
:10666800FCD1886807221203904388600F4D2846A2
:10667800FDF7ACFA2846FDF74BFC0121E069490219
:106688000322120290430843E061E069890108434C
:10669800E06160698008800060616069800080084E
:1066A800606170BD00100240007000400024F400DA
:1066B80002490148886070470019000800ED00E0B1
:1066C80001200249C04308617047000000440140AE
:1066D80010B501200249C0430861FFF737F910BD22
:1066E8000044014070B50D4C0B4A0025217A9042B8
:1066F8000BD0224609328854207AC821401CC0B2E7
:10670800FBF772F92172257170BD0029FCD00120B8
:10671800A070A171257270BDFFFF00001009002054
:1067280070B500240D4D05E02A19035DC032641CC4
:106738005374A4B28C42F7D3FFF70EFA01202870E5
:10674800EC710320E8700649002048708870222008
:10675800FCF70AFD0120FCF7F1FC70BD10090020D0
:10676800EE06002070B50F4CE569E0698006C00FA1
:1067780003D0606AC0B2FEF72BFCE069C006C10F07
:106788001020002903D02062074901224A73E169D9
:106798000907C90F03D0616A2062082020622562B8
:1067A80070BD000000380140EE07002070B50F4CA6
:1067B800E569E0698006C00F03D0606AC0B2FFF7E0
:1067C80091FFE0691026C006C00F002803D026629A
:1067D8000748FFF787FFE0690007C00F03D0606A2A
:1067E800266208202062256270BD00000044004037
:1067F800FFFF00003EB5002000900190029040206D
:1068080005252D07A8610A20FDF778FCFBF78CFA0F
:106818001548FBF7C5FAFBF79DFAFCF721F9134C6D
:10682800A074FBF76DFA4020A8626846FEF77CFE6C
:1068380068464088FCF714F920726846C088FCF75F
:106848000FF9C0B26072217A814201D90A4600E08C
:106858000246A273814201D20A4600E002460818A5
:10686800E273400820743EBD200000141C0800207C
:10687800F0B500258FB02F462C46204E01200D95EF
:10688800FEF734FF6846FEF76DFE0020FEF72EFF88
:106898000120A84000031DD069006846415A1848E5
:1068A8007A00101846221152164A2823D219D356B4
:1068B800C91889B28182A14203D90C4610496031B6
:1068C8008D76808AB04200D206460D9940187F1C0A
:1068D800FFB20D906D1CEDB2192DD9D308490D9852
:1068E80080310D46403DC8602C87AE87A21B0A80C8
:1068F8001421FBF779F8E8870FB0F0BD50C300000A
:106908001C080020C008002038B500246846009400
:10691800FEF7E0FD0098002800DA4042322800DC4B
:10692800009403491C20085E0099401A38BD0000F5
:10693800C0080020FEB500259E46002919D1002078
:10694800FEBD00244F1B7F1E0FE06600B446835B2C
:10695800361800967688B34205D90196009E738052
:106968006346019EC652641CE4B2A742EDDC6D1C6E
:10697800EDB29542E5D3002518E000244E1BF61E23
:1069880010E06700BC466346C75B1B1800935B8832
:106998009F4205D20193009B5F806746019BC353CA
:1069A800641CE4B2A642ECDC6D1CEDB27545E4D380
:1069B800002472442346891A04E05A00825A1419A2
:1069C8005B1CDBB29942F8DC002B05D01946204647
:1069D800FBF70AF880B2FEBD0088FEBD0FB410B503
:1069E80003A9044B044A029800F0C0F810BC08BC84
:1069F80004B01847F56C00081000002030B4744645
:106A0800641E2578641CAB4200D21D46635D5B00A2
:106A1800E31830BC18470000002809DBC106C90E7E
:106A28000120884003490860BFF34F8FBFF36F8F81
:106A38007047000080E100E0002805DBC106C90EB0
:106A480001208840014908607047000000E100E02B
:106A5800002805DBC106C90E0120884001490860ED
:106A68007047000000E100E0002805DBC106C90E00
:106A780001208840014908607047000000E100E0FB
:106A88008307FF22DB0E9A408907090E99400028E8
:106A980008DB830809489B001B18186890430843C3
:106AA800186070470007000F0838830804489B00E7
:106AB8001B18D86990430843D861704700E400E088
:106AC80000ED00E08307FF22DB0E9A408907090EDC
:106AD8009940002808DB830809489B001B181868A0
:106AE80090430843186070470007000F0838830870
:106AF80004489B001B18D86990430843D861704725
:106B080000E400E000ED00E08307FF22DB0E9A407E
:106B18008907090E9940002808DB830809489B006B
:106B28001B18186890430843186070470007000F47
:106B38000838830804489B001B18D8699043084309
:106B4800D861704700E400E000ED00E002E008C80A
:106B5800121F08C1002AFAD170477047002001E0CF
:106B680001C1121F002AFBD170470000FFB58DB08C
:106B78000446002506E025280AD0109A0F99904768
:106B8800641C6D1C20780028F5D1284611B0F0BD92
:106B980000270121484A009700E00743641C237836
:106BA8000846203B98401042F7D120782E2817D16C
:106BB800042007436078641C2A280CD10E98641CB2
:106BC80002C800910E900BE000990A225143303917
:106BD8004018641C00902078014630390929F3D9FF
:106BE80020780028D1D0642808D0692806D07528D4
:106BF8001ED0109A0F9990476D1C5BE00A200E99E1
:106C0800019001C90E91002802DA40422D2102E0CC
:106C1800390504D52B216A461172012103E0F907D1
:106C280004D02021F7E70BAE0B910DE00021FAE725
:106C38000A200E99019001C90E91F7E70199FAF718
:106C4800D3FE3031761E31700028F7D103A8801B9F
:106C580020300190780701D5009801E001200090CC
:106C68000199884201DD401A00E0002000270090C9
:106C780006E002A8109AC05D0F9990476D1C7F1C12
:106C88000B988742F5DB04E0109A30200F99904763
:106C98006D1C0099481E00900029F5DC05E030784D
:106CA800109A761C0F9990476D1C0199481E019007
:106CB8000029F4DC641C65E70928010010B5FDF71C
:106CC8008DFCFDF779FDFDF7DDFDFDF73FFBFDF7D9
:106CD8004FFDFDF7E1FC0020FEF70EFB0120FEF75B
:106CE8000BFB0220FEF708FB10BD00000249CA6931
:106CF8001206FCD58862704700380140F0B58C4612
:106D080023490746CC6900206342002C01DB214659
:106D180000E019467D267601891B00251D4AB142EF
:106D280007D21178491CC9B21170557014290FD8AF
:106D38000BE0002C00DA1C467D218901611AB14262
:106D48000ED25178491C517015705178142909D9FF
:106D580011785A20142906D901213970157008E0D4
:106D680015705570F0BD5178142902D90221397077
:106D780055700749382240393E238A5ECB5ED21AC5
:106D8800142A01DB0A8F00E0CA8F61460A80F0BD31
:106D98009C08002080000020F0B58C462D49002773
:106DA800CC696342002C01DB214600E019467D26B0
:106DB8007601891B0025284AB14208D21178491C5E
:106DC800C9B2117055709570142915D80EE0261E99
:106DD80000DA1E467D218901711A7D267601B142AD
:106DE80012D25178491C5170157095705178142938
:106DF80002D8917814292BD911785A27142915D932
:106E08000321017015701EE0002C00DA1C4613499E
:106E1800134B6118994205D29178491C91705570AD
:106E28001570E6E715705570957011E051781429C2
:106E380003D904210170557005E09178142902D90D
:106E480005210170957003484038818F60460180A4
:106E58003846F0BD9C0800208C00002020D1FFFFA0
:106E68001027000070B5224A3E23D35E214D00242E
:106E78005B19214DAB4238D23823D35E1F4DAB424C
:106E880033DA3C231C4DD35E6D1CAB422DDD13461B
:106E9800403B5B795A24432B1BD113464033DB69B3
:106EA800002B01DB1D4600E05D427D26F600B54261
:106EB8000FDD134D5B196D00AB4201D8012300E0D3
:106EC800022303703C20105E0E4B984203DA908F29
:106ED8000AE00023F5E738200A4B105EBE339842DB
:106EE80001DD108F00E0D08F0880204670BD0000C3
:106EF8005C0800203BF6FFFFC3090000D80E000025
:106F08003F1F00004E0C000088B000273E46079740
:106F180062B601213D4802680A43026000680840E1
:106F280000903A4809074038C26B0A43C263C06BF5
:106F3800084000900020FFF765FB3548C16903222F
:106F48000902090A92071143C16132480169022204
:106F5800114301610020FFF7B1FEFBF79FFDFFF72A
:106F68002DFBFBF743FB2C4D2C480468697B01295A
:106F78000AD12948C0384388028829A0FFF72EFD86
:106F880000206873FDF738FF2046FEF713FCE01B6E
:106F980000D540426428E7DDA87B642801D2401C64
:106FA800A8731E48016824A0FFF718FD2746FDF7BF
:106FB80019FE761C05213046FAF716FD00290ED178
:106FC8000121052049030007079AFBF7D9FF079815
:106FD80000280BD000200790FDF77EFE0026052133
:106FE8003046FAF701FD042902D004E00120F2E757
:106FF8000020FEF7C3F917480188CA07B4D049082A
:1070080049000180FBF760FEAEE700004010024037
:1070180004ED00E000E000E0EE07002000000020A2
:1070280052533438354275662D2D25642020256449
:10703800202564200D0A00002A2A2A7379737469AE
:10704800636B436F756E742A2A2A25642A2A2A0DCF
:107058000A000000540000200100000002000000A7
:107068000400000006000000080000000A000000FC
:107078000C0000001000000020000000400000008C
:107088008000000000010000000000000000000077
:1070980000000000000000000000000000000000E8
:1070A80000000000000000000100000002000000D5
:1070B80003000000040000000600000007000000B4
:1070C80008000000090000000000000000000000A7
:1070D80000000000000000000100000002000000A5
:1070E8000300000004000000D000DB00E600F2000E
:1070F800FE000B011801260134014301530163010D
:10710800730184019601A901BC01D001E401F901D0
:107118000F0225023C0254026C0286029F02BA0248
:10712800D502F1020D032A03480366038503A4036D
:10713800C403E503060428044A046D049004B40457
:10714800D804FD04220547056D059205B905DF053C
:1071580006062C0653067A06A106C806EF06170788
:107168003E0765078C07B207D907000826084C08B0
:1071780072089708BC08E10806092A094D0971092F
:107188009409B609D809FA091B0A3C0A5C0A7C0A60
:107198009B0ABA0AD80AF60A130B300B4C0B680B79
:1071A800830B9D0BB70BD10BEA0B020C1A0C320C9C
:1071B800490C5F0C760C8B0CA00CB50CC90CDC0CC4
:1071C800F00C020D150D270D380D490D5A0D6A0DDD
:1071D8007A0D890D980DA70DB60DC40DD10DDE0DD4
:1071E800EB0DF80D040E100E1C0E280E330E3E0E7D
:1071F800480E530E5D0E660E700E790E820E8B0EC3
:10720800940E9C0EA40EAC0EB40EBC0EC30ECA0E89
:10721800D10ED80EDF0EE50EEB0EF20EF80EFD0EB7
:10722800030F090F0E0F130F190F00000000211094
:10723800422063308440A550C660E77008812991D8
:107248004AA16BB18CC1ADD1CEE1EFF13112100280
:1072580073325222B5529442F772D6623993188328
:107268007BB35AA3BDD39CC3FFF3DEE3622443344C
:1072780020040114E664C774A44485546AA54BB578
:1072880028850995EEE5CFF5ACC58DD55336722620
:1072980011163006D776F6669556B4465BB77AA7C8
:1072A80019973887DFF7FEE79DD7BCC7C448E5586C
:1072B8008668A7784008611802282338CCC9EDD918
:1072C8008EE9AFF9488969990AA92BB9F55AD44AC0
:1072D800B77A966A711A500A333A122AFDDBDCCB68
:1072E800BFFB9EEB799B588B3BBB1AABA66C877C8C
:1072F800E44CC55C222C033C600C411CAEED8FFDB8
:10730800ECCDCDDD2AAD0BBD688D499D977EB66E5F
:10731800D55EF44E133E322E511E700E9FFFBEEF07
:10732800DDDFFCCF1BBF3AAF599F788F8891A981C9
:10733800CAB1EBA10CD12DC14EF16FE18010A100B3
:10734800C230E3200450254046706760B9839893A3
:10735800FBA3DAB33DC31CD37FE35EF3B102901203
:10736800F322D2323542145277625672EAB5CBA56F
:10737800A89589856EF54FE52CD50DC5E234C32453
:10738800A01481046674476424540544DBA7FAB743
:107398009987B8975FE77EF71DC73CD7D326F236A3
:1073A8009106B01657667676154634564CD96DC98F
:1073B8000EF92FE9C899E9898AB9ABA944586548F3
:1073C80006782768C018E1088238A3287DCB5CDBE3
